{
  "contractName": "ERC721",
  "abi": [
    {
      "inputs": [],
      "stateMutability": "nonpayable",
      "type": "constructor"
    },
    {
      "anonymous": false,
      "inputs": [
        {
          "indexed": true,
          "internalType": "address",
          "name": "_owner",
          "type": "address"
        },
        {
          "indexed": true,
          "internalType": "address",
          "name": "_approved",
          "type": "address"
        },
        {
          "indexed": true,
          "internalType": "uint256",
          "name": "_tokenId",
          "type": "uint256"
        }
      ],
      "name": "Approval",
      "type": "event"
    },
    {
      "anonymous": false,
      "inputs": [
        {
          "indexed": true,
          "internalType": "address",
          "name": "_from",
          "type": "address"
        },
        {
          "indexed": true,
          "internalType": "address",
          "name": "_to",
          "type": "address"
        },
        {
          "indexed": true,
          "internalType": "uint256",
          "name": "_tokenId",
          "type": "uint256"
        }
      ],
      "name": "Transfer",
      "type": "event"
    },
    {
      "inputs": [
        {
          "internalType": "bytes4",
          "name": "interfaceId",
          "type": "bytes4"
        }
      ],
      "name": "supportsInterface",
      "outputs": [
        {
          "internalType": "bool",
          "name": "",
          "type": "bool"
        }
      ],
      "stateMutability": "view",
      "type": "function"
    },
    {
      "inputs": [
        {
          "internalType": "address",
          "name": "_owner",
          "type": "address"
        }
      ],
      "name": "balanceOf",
      "outputs": [
        {
          "internalType": "uint256",
          "name": "",
          "type": "uint256"
        }
      ],
      "stateMutability": "view",
      "type": "function"
    },
    {
      "inputs": [
        {
          "internalType": "uint256",
          "name": "_tokenId",
          "type": "uint256"
        }
      ],
      "name": "ownerOf",
      "outputs": [
        {
          "internalType": "address",
          "name": "",
          "type": "address"
        }
      ],
      "stateMutability": "view",
      "type": "function"
    },
    {
      "inputs": [
        {
          "internalType": "address",
          "name": "_from",
          "type": "address"
        },
        {
          "internalType": "address",
          "name": "_to",
          "type": "address"
        },
        {
          "internalType": "uint256",
          "name": "_tokenId",
          "type": "uint256"
        }
      ],
      "name": "transferFrom",
      "outputs": [],
      "stateMutability": "nonpayable",
      "type": "function"
    },
    {
      "inputs": [
        {
          "internalType": "address",
          "name": "_to",
          "type": "address"
        },
        {
          "internalType": "uint256",
          "name": "_tokenId",
          "type": "uint256"
        }
      ],
      "name": "approve",
      "outputs": [],
      "stateMutability": "nonpayable",
      "type": "function"
    },
    {
      "inputs": [
        {
          "internalType": "uint256",
          "name": "tokenId",
          "type": "uint256"
        }
      ],
      "name": "getApproved",
      "outputs": [
        {
          "internalType": "address",
          "name": "",
          "type": "address"
        }
      ],
      "stateMutability": "view",
      "type": "function"
    }
  ],
  "bytecode": "0x60806040523480156200001157600080fd5b50620000437f01ffc9a7a5cef8baa21ed3c5c0d7e23accb804b619e9333b597f47a0d84076e2620000be60201b60201c565b620000b87f22c82707ba960a14c7592ffb6b8cfaa073fed0048a84cc7fa41f6b5bd8e7f2e47f3a6eb71757dfc6e784c1459d26270140c2c147d95ca985c80026fc5301c3eca17f8a7e378434598edc36d108689a030cbc9d7d465de4f74c71bae1028eed6a881b1818620000be60201b60201c565b62000219565b63ffffffff60e01b817bffffffffffffffffffffffffffffffffffffffffffffffffffffffff191614156200012a576040517f08c379a00000000000000000000000000000000000000000000000000000000081526004016200012190620001f7565b60405180910390fd5b6001600080837bffffffffffffffffffffffffffffffffffffffffffffffffffffffff19167bffffffffffffffffffffffffffffffffffffffffffffffffffffffff1916815260200190815260200160002060006101000a81548160ff02191690831515021790555050565b600082825260208201905092915050565b7f496e76616c696420496e74657266616365207265717565737400000000000000600082015250565b6000620001df60198362000196565b9150620001ec82620001a7565b602082019050919050565b600060208201905081810360008301526200021281620001d0565b9050919050565b61106780620002296000396000f3fe608060405234801561001057600080fd5b50600436106100625760003560e01c806301ffc9a714610067578063081812fc14610097578063095ea7b3146100c757806323b872dd146100e35780636352211e146100ff57806370a082311461012f575b600080fd5b610081600480360381019061007c9190610957565b61015f565b60405161008e919061099f565b60405180910390f35b6100b160048036038101906100ac91906109f0565b6101c6565b6040516100be9190610a5e565b60405180910390f35b6100e160048036038101906100dc9190610aa5565b61024b565b005b6100fd60048036038101906100f89190610ae5565b6103e7565b005b610119600480360381019061011491906109f0565b61040a565b6040516101269190610a5e565b60405180910390f35b61014960048036038101906101449190610b38565b6104bc565b6040516101569190610b74565b60405180910390f35b6000806000837bffffffffffffffffffffffffffffffffffffffffffffffffffffffff19167bffffffffffffffffffffffffffffffffffffffffffffffffffffffff1916815260200190815260200160002060009054906101000a900460ff169050919050565b60006101d182610574565b610210576040517f08c379a000000000000000000000000000000000000000000000000000000000815260040161020790610c12565b60405180910390fd5b6003600083815260200190815260200160002060009054906101000a900473ffffffffffffffffffffffffffffffffffffffff169050919050565b60006102568261040a565b90508073ffffffffffffffffffffffffffffffffffffffff168373ffffffffffffffffffffffffffffffffffffffff1614156102c7576040517f08c379a00000000000000000000000000000000000000000000000000000000081526004016102be90610ca4565b60405180910390fd5b8073ffffffffffffffffffffffffffffffffffffffff163373ffffffffffffffffffffffffffffffffffffffff1614610335576040517f08c379a000000000000000000000000000000000000000000000000000000000815260040161032c90610d36565b60405180910390fd5b826003600084815260200190815260200160002060006101000a81548173ffffffffffffffffffffffffffffffffffffffff021916908373ffffffffffffffffffffffffffffffffffffffff160217905550818373ffffffffffffffffffffffffffffffffffffffff168273ffffffffffffffffffffffffffffffffffffffff167f8c5be1e5ebec7d5bd14f71427d1e84f3dd0314c0f7b2291e5b200ac8c7c3b92560405160405180910390a4505050565b6103f133826105e6565b6103fa57600080fd5b6104058383836106b3565b505050565b6000806001600084815260200190815260200160002060009054906101000a900473ffffffffffffffffffffffffffffffffffffffff169050600073ffffffffffffffffffffffffffffffffffffffff168173ffffffffffffffffffffffffffffffffffffffff1614156104b3576040517f08c379a00000000000000000000000000000000000000000000000000000000081526004016104aa90610dc8565b60405180910390fd5b80915050919050565b60008073ffffffffffffffffffffffffffffffffffffffff168273ffffffffffffffffffffffffffffffffffffffff16141561052d576040517f08c379a000000000000000000000000000000000000000000000000000000000815260040161052490610dc8565b60405180910390fd5b600260008373ffffffffffffffffffffffffffffffffffffffff1673ffffffffffffffffffffffffffffffffffffffff168152602001908152602001600020549050919050565b6000806001600084815260200190815260200160002060009054906101000a900473ffffffffffffffffffffffffffffffffffffffff169050600073ffffffffffffffffffffffffffffffffffffffff168173ffffffffffffffffffffffffffffffffffffffff161415915050919050565b60006105f182610574565b610630576040517f08c379a000000000000000000000000000000000000000000000000000000000815260040161062790610e34565b60405180910390fd5b600061063b8361040a565b90508073ffffffffffffffffffffffffffffffffffffffff168473ffffffffffffffffffffffffffffffffffffffff1614806106aa57508373ffffffffffffffffffffffffffffffffffffffff16610692846101c6565b73ffffffffffffffffffffffffffffffffffffffff16145b91505092915050565b600073ffffffffffffffffffffffffffffffffffffffff168273ffffffffffffffffffffffffffffffffffffffff161415610723576040517f08c379a000000000000000000000000000000000000000000000000000000000815260040161071a90610ec6565b60405180910390fd5b8273ffffffffffffffffffffffffffffffffffffffff166107438261040a565b73ffffffffffffffffffffffffffffffffffffffff1614610799576040517f08c379a000000000000000000000000000000000000000000000000000000000815260040161079090610f58565b60405180910390fd5b816001600083815260200190815260200160002060006101000a81548173ffffffffffffffffffffffffffffffffffffffff021916908373ffffffffffffffffffffffffffffffffffffffff1602179055506001600260008573ffffffffffffffffffffffffffffffffffffffff1673ffffffffffffffffffffffffffffffffffffffff168152602001908152602001600020600082825461083b9190610fa7565b925050819055506001600260008473ffffffffffffffffffffffffffffffffffffffff1673ffffffffffffffffffffffffffffffffffffffff16815260200190815260200160002060008282546108929190610fdb565b92505081905550808273ffffffffffffffffffffffffffffffffffffffff16600073ffffffffffffffffffffffffffffffffffffffff167fddf252ad1be2c89b69c2b068fc378daa952ba7f163c4a11628f55a4df523b3ef60405160405180910390a4505050565b600080fd5b60007fffffffff0000000000000000000000000000000000000000000000000000000082169050919050565b610934816108ff565b811461093f57600080fd5b50565b6000813590506109518161092b565b92915050565b60006020828403121561096d5761096c6108fa565b5b600061097b84828501610942565b91505092915050565b60008115159050919050565b61099981610984565b82525050565b60006020820190506109b46000830184610990565b92915050565b6000819050919050565b6109cd816109ba565b81146109d857600080fd5b50565b6000813590506109ea816109c4565b92915050565b600060208284031215610a0657610a056108fa565b5b6000610a14848285016109db565b91505092915050565b600073ffffffffffffffffffffffffffffffffffffffff82169050919050565b6000610a4882610a1d565b9050919050565b610a5881610a3d565b82525050565b6000602082019050610a736000830184610a4f565b92915050565b610a8281610a3d565b8114610a8d57600080fd5b50565b600081359050610a9f81610a79565b92915050565b60008060408385031215610abc57610abb6108fa565b5b6000610aca85828601610a90565b9250506020610adb858286016109db565b9150509250929050565b600080600060608486031215610afe57610afd6108fa565b5b6000610b0c86828701610a90565b9350506020610b1d86828701610a90565b9250506040610b2e868287016109db565b9150509250925092565b600060208284031215610b4e57610b4d6108fa565b5b6000610b5c84828501610a90565b91505092915050565b610b6e816109ba565b82525050565b6000602082019050610b896000830184610b65565b92915050565b600082825260208201905092915050565b7f4552433732313a20617070726f76656420717565727920666f72206e6f6e657860008201527f697374656e7420746f6b656e0000000000000000000000000000000000000000602082015250565b6000610bfc602c83610b8f565b9150610c0782610ba0565b604082019050919050565b60006020820190508181036000830152610c2b81610bef565b9050919050565b7f4572726f72202d20617070726f76616c20746f2063757272656e74206f776e6560008201527f7200000000000000000000000000000000000000000000000000000000000000602082015250565b6000610c8e602183610b8f565b9150610c9982610c32565b604082019050919050565b60006020820190508181036000830152610cbd81610c81565b9050919050565b7f43757272656e742063616c6c6572206973206e6f7420746865206f776e65722060008201527f6f662074686520746f6b656e0000000000000000000000000000000000000000602082015250565b6000610d20602c83610b8f565b9150610d2b82610cc4565b604082019050919050565b60006020820190508181036000830152610d4f81610d13565b9050919050565b7f6f776e657220717565727920666f72206e6f6e2d6578697374656e7420746f6b60008201527f656e000000000000000000000000000000000000000000000000000000000000602082015250565b6000610db2602283610b8f565b9150610dbd82610d56565b604082019050919050565b60006020820190508181036000830152610de181610da5565b9050919050565b7f746f6b656e20646f6573206e6f74206578697374000000000000000000000000600082015250565b6000610e1e601483610b8f565b9150610e2982610de8565b602082019050919050565b60006020820190508181036000830152610e4d81610e11565b9050919050565b7f4572726f72202d20455243373231205472616e7366657220746f74207468652060008201527f7a65726f20616464726573730000000000000000000000000000000000000000602082015250565b6000610eb0602c83610b8f565b9150610ebb82610e54565b604082019050919050565b60006020820190508181036000830152610edf81610ea3565b9050919050565b7f547279696e6720746f207472616e73666572206120746f6b656e20746865206160008201527f64647265737320646f6573206e6f74206f776e21000000000000000000000000602082015250565b6000610f42603483610b8f565b9150610f4d82610ee6565b604082019050919050565b60006020820190508181036000830152610f7181610f35565b9050919050565b7f4e487b7100000000000000000000000000000000000000000000000000000000600052601160045260246000fd5b6000610fb2826109ba565b9150610fbd836109ba565b925082821015610fd057610fcf610f78565b5b828203905092915050565b6000610fe6826109ba565b9150610ff1836109ba565b9250827fffffffffffffffffffffffffffffffffffffffffffffffffffffffffffffffff0382111561102657611025610f78565b5b82820190509291505056fea26469706673582212204019178ed56741992e26b641206e9f373ee23d2106ff05ffbda9df3b155e683464736f6c634300080c0033",
  "immutableReferences": {},
  "source": "// SPDX-License-Identifier: MIT\npragma solidity ^0.8.0;\n\nimport './ERC165.sol';\nimport './interfaces/IERC721.sol';\n\n/*\nbuilding out the minting function:\n    a. NFT to pint to an address\n    b. keep track of the token ids\n    c. keep track of token owner addresses to token ids\n    d. keep track of how many tokens an owner address has\n    e. create an even that emits a transfer log \n        - contract address, where it is being minted to, the id\n*/\n\ncontract ERC721 is ERC165, IERC721 {\n\n    // mapping in solidity creates a hash table of key pair values\n\n    // Mapping from token_id to the owner\n    mapping(uint256 => address) private _tokenOwner;\n\n    // Mapping from owner to number of owned tokens\n    mapping(address => uint256) private _OwnedTokensCount;\n\n    // Mapping from tokenId to approved addresses\n    mapping(uint256 => address) private _tokenApprovals;\n\n    constructor() {\n        _registerInterface(bytes4(keccak256('balanceOf(bytes4)')^keccak256('ownerOf(bytes4)')^keccak256('transferFrom(bytes4)')));\n    }\n\n    /// @notice Count all NFTs assigned to an owner\n    /// @dev NFTs assigned to the zero address are considered invalid, and this\n    ///  function throws for queries about the zero address.\n    /// @param _owner An address for whom to query the balance\n    /// @return The number of NFTs owned by `_owner`, possibly zero\n    function balanceOf(address _owner) public override view returns (uint256){\n        require (_owner != address(0), 'owner query for non-existent token');\n        return _OwnedTokensCount[_owner];\n    }\n\n    /// @notice Find the owner of an NFT\n    /// @dev NFTs assigned to zero address are considered invalid, and queries\n    ///  about them do throw.\n    /// @param _tokenId The identifier for an NFT\n    /// @return The address of the owner of the NFT\n    function ownerOf(uint256 _tokenId) public override view returns (address) {\n       address owner = _tokenOwner[_tokenId];\n       require (owner != address(0), 'owner query for non-existent token');\n       return owner;\n    }\n\n\n    function _exists(uint tokenId) internal view returns(bool) {\n        // setting the address of nft owner to check the mapping\n        // of the address from tokenOwner at the tokenId\n        address owner = _tokenOwner[tokenId];\n        // return truthiness that address is not zero\n        return owner != address(0);\n    }\n\n    function _mint(address to, uint tokenId) internal virtual {\n        // requires that the address isn't zero\n        require(to != address(0), 'ERC721: minting to the zero address');\n        // requires that the token does not already exist\n        require(!_exists(tokenId), 'ERC721: token already minted');\n        // we are adding a new address with a tokenId for minting\n        _tokenOwner[tokenId] = to;\n        // keeping track of each address that is minting and adding one to the count\n        _OwnedTokensCount[to]++;\n\n        emit Transfer(address(0), to, tokenId);\n    }\n\n    /// @notice Transfer ownership of an NFT -- THE CALLER IS RESPONSIBLE\n    ///  TO CONFIRM THAT `_to` IS CAPABLE OF RECEIVING NFTS OR ELSE\n    ///  THEY MAY BE PERMANENTLY LOST\n    /// @dev Throws unless `msg.sender` is the current owner, an authorized\n    ///  operator, or the approved address for this NFT. Throws if `_from` is\n    ///  not the current owner. Throws if `_to` is the zero address. Throws if\n    ///  `_tokenId` is not a valid NFT.\n    /// @param _from The current owner of the NFT\n    /// @param _to The new owner\n    /// @param _tokenId The NFT to transfer\n    function _transferFrom(address _from, address _to, uint256 _tokenId) internal {\n        // Chanllenge\n        // 1. add the tokenId to the address receiving the token\n        // 2. update the balance of the address _from token\n        // 3. update the balance of the address _to\n        // 4. add the safe functionality\n        // a. require that the address receiving a token is not a zero address\n        // b. require the address transfering the token actually owns the token\n        require(_to != address(0), 'Error - ERC721 Transfer tot the zero address');\n        require(ownerOf(_tokenId) == _from, 'Trying to transfer a token the address does not own!');\n\n        _tokenOwner[_tokenId] = _to;\n\n        _OwnedTokensCount[_from] -= 1;\n        _OwnedTokensCount[_to] += 1;\n\n        emit Transfer(address(0), _to, _tokenId);\n\n    }\n\n    function transferFrom(address _from, address _to, uint256 _tokenId) override public {\n        require(isApprovedOrOwner(msg.sender, _tokenId));\n        _transferFrom(_from, _to, _tokenId);\n    }\n\n    // 1. require that the person approving is the owner\n    // 2. we are approving an address to a token (tokenId)\n    // 3. require that we can approve sending tokens of the owner to the owner (current caller)\n    // 4. update the map of the approval addresses\n    function approve(address _to, uint256 _tokenId) public {\n        address owner = ownerOf(_tokenId);\n        require(_to != owner, 'Error - approval to current owner');\n        require(msg.sender == owner, 'Current caller is not the owner of the token');\n        _tokenApprovals[_tokenId] = _to;\n\n        emit Approval(owner, _to, _tokenId);\n    }\n\n    function getApproved(uint256 tokenId) public view virtual returns (address) {\n        require(_exists(tokenId), \"ERC721: approved query for nonexistent token\");\n\n        return _tokenApprovals[tokenId];\n    }\n\n    function isApprovedOrOwner(address spender, uint256 tokenId) internal view returns(bool) {\n        require(_exists(tokenId), 'token does not exist');\n        address owner = ownerOf(tokenId);\n        return (spender == owner || getApproved(tokenId) == spender);\n    }\n\n}",
  "sourcePath": "/home/hope/dev/study/nft/nft-marketplace-starter-kit/src/contracts/ERC721.sol",
  "compiler": {
    "name": "solc",
    "version": "0.8.12+commit.f00d7308.Emscripten.clang"
  },
  "schemaVersion": "3.4.5",
  "updatedAt": "2022-03-02T16:55:42.331Z",
  "devdoc": {
    "kind": "dev",
    "methods": {
      "balanceOf(address)": {
        "details": "NFTs assigned to the zero address are considered invalid, and this  function throws for queries about the zero address.",
        "params": {
          "_owner": "An address for whom to query the balance"
        },
        "returns": {
          "_0": "The number of NFTs owned by `_owner`, possibly zero"
        }
      },
      "ownerOf(uint256)": {
        "details": "NFTs assigned to zero address are considered invalid, and queries  about them do throw.",
        "params": {
          "_tokenId": "The identifier for an NFT"
        },
        "returns": {
          "_0": "The address of the owner of the NFT"
        }
      }
    },
    "version": 1
  },
  "userdoc": {
    "kind": "user",
    "methods": {
      "balanceOf(address)": {
        "notice": "Count all NFTs assigned to an owner"
      },
      "ownerOf(uint256)": {
        "notice": "Find the owner of an NFT"
      }
    },
    "version": 1
  }
}