{
  "contractName": "KryptoBird",
  "abi": [
    {
      "inputs": [],
      "stateMutability": "nonpayable",
      "type": "constructor"
    },
    {
      "anonymous": false,
      "inputs": [
        {
          "indexed": true,
          "internalType": "address",
          "name": "_owner",
          "type": "address"
        },
        {
          "indexed": true,
          "internalType": "address",
          "name": "_approved",
          "type": "address"
        },
        {
          "indexed": true,
          "internalType": "uint256",
          "name": "_tokenId",
          "type": "uint256"
        }
      ],
      "name": "Approval",
      "type": "event"
    },
    {
      "anonymous": false,
      "inputs": [
        {
          "indexed": true,
          "internalType": "address",
          "name": "_from",
          "type": "address"
        },
        {
          "indexed": true,
          "internalType": "address",
          "name": "_to",
          "type": "address"
        },
        {
          "indexed": true,
          "internalType": "uint256",
          "name": "_tokenId",
          "type": "uint256"
        }
      ],
      "name": "Transfer",
      "type": "event"
    },
    {
      "inputs": [
        {
          "internalType": "address",
          "name": "_to",
          "type": "address"
        },
        {
          "internalType": "uint256",
          "name": "_tokenId",
          "type": "uint256"
        }
      ],
      "name": "approve",
      "outputs": [],
      "stateMutability": "nonpayable",
      "type": "function"
    },
    {
      "inputs": [
        {
          "internalType": "address",
          "name": "_owner",
          "type": "address"
        }
      ],
      "name": "balanceOf",
      "outputs": [
        {
          "internalType": "uint256",
          "name": "",
          "type": "uint256"
        }
      ],
      "stateMutability": "view",
      "type": "function"
    },
    {
      "inputs": [
        {
          "internalType": "uint256",
          "name": "tokenId",
          "type": "uint256"
        }
      ],
      "name": "getApproved",
      "outputs": [
        {
          "internalType": "address",
          "name": "",
          "type": "address"
        }
      ],
      "stateMutability": "view",
      "type": "function"
    },
    {
      "inputs": [
        {
          "internalType": "uint256",
          "name": "",
          "type": "uint256"
        }
      ],
      "name": "kryptoBirdz",
      "outputs": [
        {
          "internalType": "string",
          "name": "",
          "type": "string"
        }
      ],
      "stateMutability": "view",
      "type": "function"
    },
    {
      "inputs": [],
      "name": "name",
      "outputs": [
        {
          "internalType": "string",
          "name": "",
          "type": "string"
        }
      ],
      "stateMutability": "view",
      "type": "function"
    },
    {
      "inputs": [
        {
          "internalType": "uint256",
          "name": "_tokenId",
          "type": "uint256"
        }
      ],
      "name": "ownerOf",
      "outputs": [
        {
          "internalType": "address",
          "name": "",
          "type": "address"
        }
      ],
      "stateMutability": "view",
      "type": "function"
    },
    {
      "inputs": [
        {
          "internalType": "bytes4",
          "name": "interfaceId",
          "type": "bytes4"
        }
      ],
      "name": "supportsInterface",
      "outputs": [
        {
          "internalType": "bool",
          "name": "",
          "type": "bool"
        }
      ],
      "stateMutability": "view",
      "type": "function"
    },
    {
      "inputs": [],
      "name": "symbol",
      "outputs": [
        {
          "internalType": "string",
          "name": "",
          "type": "string"
        }
      ],
      "stateMutability": "view",
      "type": "function"
    },
    {
      "inputs": [
        {
          "internalType": "uint256",
          "name": "index",
          "type": "uint256"
        }
      ],
      "name": "tokenByIndex",
      "outputs": [
        {
          "internalType": "uint256",
          "name": "",
          "type": "uint256"
        }
      ],
      "stateMutability": "view",
      "type": "function"
    },
    {
      "inputs": [
        {
          "internalType": "address",
          "name": "owner",
          "type": "address"
        },
        {
          "internalType": "uint256",
          "name": "index",
          "type": "uint256"
        }
      ],
      "name": "tokenOfOwnerByIndex",
      "outputs": [
        {
          "internalType": "uint256",
          "name": "",
          "type": "uint256"
        }
      ],
      "stateMutability": "view",
      "type": "function"
    },
    {
      "inputs": [],
      "name": "totalSupply",
      "outputs": [
        {
          "internalType": "uint256",
          "name": "",
          "type": "uint256"
        }
      ],
      "stateMutability": "view",
      "type": "function"
    },
    {
      "inputs": [
        {
          "internalType": "address",
          "name": "_from",
          "type": "address"
        },
        {
          "internalType": "address",
          "name": "_to",
          "type": "address"
        },
        {
          "internalType": "uint256",
          "name": "_tokenId",
          "type": "uint256"
        }
      ],
      "name": "transferFrom",
      "outputs": [],
      "stateMutability": "nonpayable",
      "type": "function"
    },
    {
      "inputs": [
        {
          "internalType": "string",
          "name": "_kryptoBird",
          "type": "string"
        }
      ],
      "name": "mint",
      "outputs": [],
      "stateMutability": "nonpayable",
      "type": "function"
    }
  ],
  "bytecode": "0x60806040523480156200001157600080fd5b506040518060400160405280600a81526020017f4b727970746f42697264000000000000000000000000000000000000000000008152506040518060400160405280600681526020017f4b424952445a00000000000000000000000000000000000000000000000000008152508181620000b17f01ffc9a7a5cef8baa21ed3c5c0d7e23accb804b619e9333b597f47a0d84076e26200022a60201b60201c565b620001047f13b182f4c0e5b2efbac0efe6cf6d756c8b89f4b79c5707a043ed9ea740574ee97f7feaf19471f34a12a7eaf32d5f3090aa2260ea8624dc8a138e74e0bf0f623076186200022a60201b60201c565b81600190805190602001906200011c92919062000302565b5080600290805190602001906200013592919062000302565b505050620001ad7f22c82707ba960a14c7592ffb6b8cfaa073fed0048a84cc7fa41f6b5bd8e7f2e47f3a6eb71757dfc6e784c1459d26270140c2c147d95ca985c80026fc5301c3eca17f8a7e378434598edc36d108689a030cbc9d7d465de4f74c71bae1028eed6a881b18186200022a60201b60201c565b620002227f8230223f691b981717299fae9549350a0d894555723531f02108b1f522c1a7977f6da5e1284143cdd2d15038a59bde3be031250f00291d64494c12d967b3a4e0c37fc53637662700e6c65104059db8bba34439e0c32483ab7c34e3ccae52c739549518186200022a60201b60201c565b50506200049a565b63ffffffff60e01b817bffffffffffffffffffffffffffffffffffffffffffffffffffffffff1916141562000296576040517f08c379a00000000000000000000000000000000000000000000000000000000081526004016200028d9062000413565b60405180910390fd5b6001600080837bffffffffffffffffffffffffffffffffffffffffffffffffffffffff19167bffffffffffffffffffffffffffffffffffffffffffffffffffffffff1916815260200190815260200160002060006101000a81548160ff02191690831515021790555050565b828054620003109062000464565b90600052602060002090601f01602090048101928262000334576000855562000380565b82601f106200034f57805160ff191683800117855562000380565b8280016001018555821562000380579182015b828111156200037f57825182559160200191906001019062000362565b5b5090506200038f919062000393565b5090565b5b80821115620003ae57600081600090555060010162000394565b5090565b600082825260208201905092915050565b7f496e76616c696420496e74657266616365207265717565737400000000000000600082015250565b6000620003fb601983620003b2565b91506200040882620003c3565b602082019050919050565b600060208201905081810360008301526200042e81620003ec565b9050919050565b7f4e487b7100000000000000000000000000000000000000000000000000000000600052602260045260246000fd5b600060028204905060018216806200047d57607f821691505b6020821081141562000494576200049362000435565b5b50919050565b611f7680620004aa6000396000f3fe608060405234801561001057600080fd5b50600436106100cf5760003560e01c80632f745c591161008c57806370a082311161006657806370a082311461023857806393ab6e561461026857806395d89b4114610298578063d85d3d27146102b6576100cf565b80632f745c59146101a85780634f6ccce7146101d85780636352211e14610208576100cf565b806301ffc9a7146100d457806306fdde0314610104578063081812fc14610122578063095ea7b31461015257806318160ddd1461016e57806323b872dd1461018c575b600080fd5b6100ee60048036038101906100e991906112f3565b6102d2565b6040516100fb919061133b565b60405180910390f35b61010c610339565b60405161011991906113ef565b60405180910390f35b61013c60048036038101906101379190611447565b6103cb565b60405161014991906114b5565b60405180910390f35b61016c600480360381019061016791906114fc565b610450565b005b6101766105ec565b604051610183919061154b565b60405180910390f35b6101a660048036038101906101a19190611566565b6105f9565b005b6101c260048036038101906101bd91906114fc565b61061c565b6040516101cf919061154b565b60405180910390f35b6101f260048036038101906101ed9190611447565b6106cc565b6040516101ff919061154b565b60405180910390f35b610222600480360381019061021d9190611447565b61073d565b60405161022f91906114b5565b60405180910390f35b610252600480360381019061024d91906115b9565b6107ef565b60405161025f919061154b565b60405180910390f35b610282600480360381019061027d9190611447565b6108ae565b60405161028f91906113ef565b60405180910390f35b6102a061095a565b6040516102ad91906113ef565b60405180910390f35b6102d060048036038101906102cb919061171b565b6109ec565b005b6000806000837bffffffffffffffffffffffffffffffffffffffffffffffffffffffff19167bffffffffffffffffffffffffffffffffffffffffffffffffffffffff1916815260200190815260200160002060009054906101000a900460ff169050919050565b60606001805461034890611793565b80601f016020809104026020016040519081016040528092919081815260200182805461037490611793565b80156103c15780601f10610396576101008083540402835291602001916103c1565b820191906000526020600020905b8154815290600101906020018083116103a457829003601f168201915b5050505050905090565b60006103d682610aef565b610415576040517f08c379a000000000000000000000000000000000000000000000000000000000815260040161040c90611837565b60405180910390fd5b6005600083815260200190815260200160002060009054906101000a900473ffffffffffffffffffffffffffffffffffffffff169050919050565b600061045b8261073d565b90508073ffffffffffffffffffffffffffffffffffffffff168373ffffffffffffffffffffffffffffffffffffffff1614156104cc576040517f08c379a00000000000000000000000000000000000000000000000000000000081526004016104c3906118c9565b60405180910390fd5b8073ffffffffffffffffffffffffffffffffffffffff163373ffffffffffffffffffffffffffffffffffffffff161461053a576040517f08c379a00000000000000000000000000000000000000000000000000000000081526004016105319061195b565b60405180910390fd5b826005600084815260200190815260200160002060006101000a81548173ffffffffffffffffffffffffffffffffffffffff021916908373ffffffffffffffffffffffffffffffffffffffff160217905550818373ffffffffffffffffffffffffffffffffffffffff168273ffffffffffffffffffffffffffffffffffffffff167f8c5be1e5ebec7d5bd14f71427d1e84f3dd0314c0f7b2291e5b200ac8c7c3b92560405160405180910390a4505050565b6000600680549050905090565b6106033382610b61565b61060c57600080fd5b610617838383610c2e565b505050565b6000610627836107ef565b8210610668576040517f08c379a000000000000000000000000000000000000000000000000000000000815260040161065f906119c7565b60405180910390fd5b600860008473ffffffffffffffffffffffffffffffffffffffff1673ffffffffffffffffffffffffffffffffffffffff16815260200190815260200160002082815481106106b9576106b86119e7565b5b9060005260206000200154905092915050565b60006106d66105ec565b8210610717576040517f08c379a000000000000000000000000000000000000000000000000000000000815260040161070e906119c7565b60405180910390fd5b6006828154811061072b5761072a6119e7565b5b90600052602060002001549050919050565b6000806003600084815260200190815260200160002060009054906101000a900473ffffffffffffffffffffffffffffffffffffffff169050600073ffffffffffffffffffffffffffffffffffffffff168173ffffffffffffffffffffffffffffffffffffffff1614156107e6576040517f08c379a00000000000000000000000000000000000000000000000000000000081526004016107dd90611a88565b60405180910390fd5b80915050919050565b60008073ffffffffffffffffffffffffffffffffffffffff168273ffffffffffffffffffffffffffffffffffffffff161415610860576040517f08c379a000000000000000000000000000000000000000000000000000000000815260040161085790611a88565b60405180910390fd5b6108a7600460008473ffffffffffffffffffffffffffffffffffffffff1673ffffffffffffffffffffffffffffffffffffffff168152602001908152602001600020610e55565b9050919050565b600a81815481106108be57600080fd5b9060005260206000200160009150905080546108d990611793565b80601f016020809104026020016040519081016040528092919081815260200182805461090590611793565b80156109525780601f1061092757610100808354040283529160200191610952565b820191906000526020600020905b81548152906001019060200180831161093557829003601f168201915b505050505081565b60606002805461096990611793565b80601f016020809104026020016040519081016040528092919081815260200182805461099590611793565b80156109e25780601f106109b7576101008083540402835291602001916109e2565b820191906000526020600020905b8154815290600101906020018083116109c557829003601f168201915b5050505050905090565b600b816040516109fc9190611ae4565b908152602001604051809103902060009054906101000a900460ff1615610a58576040517f08c379a0000000000000000000000000000000000000000000000000000000008152600401610a4f90611b6d565b60405180910390fd5b600a81908060018154018082558091505060019003906000526020600020016000909190919091509080519060200190610a939291906111e4565b5060006001600a80549050610aa89190611bbc565b9050610ab43382610e63565b6001600b83604051610ac69190611ae4565b908152602001604051809103902060006101000a81548160ff0219169083151502179055505050565b6000806003600084815260200190815260200160002060009054906101000a900473ffffffffffffffffffffffffffffffffffffffff169050600073ffffffffffffffffffffffffffffffffffffffff168173ffffffffffffffffffffffffffffffffffffffff161415915050919050565b6000610b6c82610aef565b610bab576040517f08c379a0000000000000000000000000000000000000000000000000000000008152600401610ba290611c3c565b60405180910390fd5b6000610bb68361073d565b90508073ffffffffffffffffffffffffffffffffffffffff168473ffffffffffffffffffffffffffffffffffffffff161480610c2557508373ffffffffffffffffffffffffffffffffffffffff16610c0d846103cb565b73ffffffffffffffffffffffffffffffffffffffff16145b91505092915050565b600073ffffffffffffffffffffffffffffffffffffffff168273ffffffffffffffffffffffffffffffffffffffff161415610c9e576040517f08c379a0000000000000000000000000000000000000000000000000000000008152600401610c9590611cce565b60405180910390fd5b8273ffffffffffffffffffffffffffffffffffffffff16610cbe8261073d565b73ffffffffffffffffffffffffffffffffffffffff1614610d14576040517f08c379a0000000000000000000000000000000000000000000000000000000008152600401610d0b90611d60565b60405180910390fd5b816003600083815260200190815260200160002060006101000a81548173ffffffffffffffffffffffffffffffffffffffff021916908373ffffffffffffffffffffffffffffffffffffffff160217905550610dad600460008573ffffffffffffffffffffffffffffffffffffffff1673ffffffffffffffffffffffffffffffffffffffff168152602001908152602001600020610e84565b610df4600460008473ffffffffffffffffffffffffffffffffffffffff1673ffffffffffffffffffffffffffffffffffffffff168152602001908152602001600020610ea7565b808273ffffffffffffffffffffffffffffffffffffffff16600073ffffffffffffffffffffffffffffffffffffffff167fddf252ad1be2c89b69c2b068fc378daa952ba7f163c4a11628f55a4df523b3ef60405160405180910390a4505050565b600081600001549050919050565b610e6d8282610ec6565b610e7681611078565b610e8082826110c1565b5050565b610e9c6001826000015461118590919063ffffffff16565b816000018190555050565b6001816000016000828254610ebc9190611d80565b9250508190555050565b600073ffffffffffffffffffffffffffffffffffffffff168273ffffffffffffffffffffffffffffffffffffffff161415610f36576040517f08c379a0000000000000000000000000000000000000000000000000000000008152600401610f2d90611e48565b60405180910390fd5b610f3f81610aef565b15610f7f576040517f08c379a0000000000000000000000000000000000000000000000000000000008152600401610f7690611eb4565b60405180910390fd5b816003600083815260200190815260200160002060006101000a81548173ffffffffffffffffffffffffffffffffffffffff021916908373ffffffffffffffffffffffffffffffffffffffff160217905550611018600460008473ffffffffffffffffffffffffffffffffffffffff1673ffffffffffffffffffffffffffffffffffffffff168152602001908152602001600020610ea7565b808273ffffffffffffffffffffffffffffffffffffffff16600073ffffffffffffffffffffffffffffffffffffffff167fddf252ad1be2c89b69c2b068fc378daa952ba7f163c4a11628f55a4df523b3ef60405160405180910390a45050565b6006805490506007600083815260200190815260200160002081905550600681908060018154018082558091505060019003906000526020600020016000909190919091505550565b600860008373ffffffffffffffffffffffffffffffffffffffff1673ffffffffffffffffffffffffffffffffffffffff168152602001908152602001600020805490506009600083815260200190815260200160002081905550600860008373ffffffffffffffffffffffffffffffffffffffff1673ffffffffffffffffffffffffffffffffffffffff1681526020019081526020016000208190806001815401808255809150506001900390600052602060002001600090919091909150555050565b6000828211156111ca576040517f08c379a00000000000000000000000000000000000000000000000000000000081526004016111c190611f20565b60405180910390fd5b600082846111d89190611bbc565b90508091505092915050565b8280546111f090611793565b90600052602060002090601f0160209004810192826112125760008555611259565b82601f1061122b57805160ff1916838001178555611259565b82800160010185558215611259579182015b8281111561125857825182559160200191906001019061123d565b5b509050611266919061126a565b5090565b5b8082111561128357600081600090555060010161126b565b5090565b6000604051905090565b600080fd5b600080fd5b60007fffffffff0000000000000000000000000000000000000000000000000000000082169050919050565b6112d08161129b565b81146112db57600080fd5b50565b6000813590506112ed816112c7565b92915050565b60006020828403121561130957611308611291565b5b6000611317848285016112de565b91505092915050565b60008115159050919050565b61133581611320565b82525050565b6000602082019050611350600083018461132c565b92915050565b600081519050919050565b600082825260208201905092915050565b60005b83811015611390578082015181840152602081019050611375565b8381111561139f576000848401525b50505050565b6000601f19601f8301169050919050565b60006113c182611356565b6113cb8185611361565b93506113db818560208601611372565b6113e4816113a5565b840191505092915050565b6000602082019050818103600083015261140981846113b6565b905092915050565b6000819050919050565b61142481611411565b811461142f57600080fd5b50565b6000813590506114418161141b565b92915050565b60006020828403121561145d5761145c611291565b5b600061146b84828501611432565b91505092915050565b600073ffffffffffffffffffffffffffffffffffffffff82169050919050565b600061149f82611474565b9050919050565b6114af81611494565b82525050565b60006020820190506114ca60008301846114a6565b92915050565b6114d981611494565b81146114e457600080fd5b50565b6000813590506114f6816114d0565b92915050565b6000806040838503121561151357611512611291565b5b6000611521858286016114e7565b925050602061153285828601611432565b9150509250929050565b61154581611411565b82525050565b6000602082019050611560600083018461153c565b92915050565b60008060006060848603121561157f5761157e611291565b5b600061158d868287016114e7565b935050602061159e868287016114e7565b92505060406115af86828701611432565b9150509250925092565b6000602082840312156115cf576115ce611291565b5b60006115dd848285016114e7565b91505092915050565b600080fd5b600080fd5b7f4e487b7100000000000000000000000000000000000000000000000000000000600052604160045260246000fd5b611628826113a5565b810181811067ffffffffffffffff82111715611647576116466115f0565b5b80604052505050565b600061165a611287565b9050611666828261161f565b919050565b600067ffffffffffffffff821115611686576116856115f0565b5b61168f826113a5565b9050602081019050919050565b82818337600083830152505050565b60006116be6116b98461166b565b611650565b9050828152602081018484840111156116da576116d96115eb565b5b6116e584828561169c565b509392505050565b600082601f830112611702576117016115e6565b5b81356117128482602086016116ab565b91505092915050565b60006020828403121561173157611730611291565b5b600082013567ffffffffffffffff81111561174f5761174e611296565b5b61175b848285016116ed565b91505092915050565b7f4e487b7100000000000000000000000000000000000000000000000000000000600052602260045260246000fd5b600060028204905060018216806117ab57607f821691505b602082108114156117bf576117be611764565b5b50919050565b7f4552433732313a20617070726f76656420717565727920666f72206e6f6e657860008201527f697374656e7420746f6b656e0000000000000000000000000000000000000000602082015250565b6000611821602c83611361565b915061182c826117c5565b604082019050919050565b6000602082019050818103600083015261185081611814565b9050919050565b7f4572726f72202d20617070726f76616c20746f2063757272656e74206f776e6560008201527f7200000000000000000000000000000000000000000000000000000000000000602082015250565b60006118b3602183611361565b91506118be82611857565b604082019050919050565b600060208201905081810360008301526118e2816118a6565b9050919050565b7f43757272656e742063616c6c6572206973206e6f7420746865206f776e65722060008201527f6f662074686520746f6b656e0000000000000000000000000000000000000000602082015250565b6000611945602c83611361565b9150611950826118e9565b604082019050919050565b6000602082019050818103600083015261197481611938565b9050919050565b7f676c6f62616c20696e646578206973206f7574206f6620626f756e6473210000600082015250565b60006119b1601e83611361565b91506119bc8261197b565b602082019050919050565b600060208201905081810360008301526119e0816119a4565b9050919050565b7f4e487b7100000000000000000000000000000000000000000000000000000000600052603260045260246000fd5b7f6f776e657220717565727920666f72206e6f6e2d6578697374656e7420746f6b60008201527f656e000000000000000000000000000000000000000000000000000000000000602082015250565b6000611a72602283611361565b9150611a7d82611a16565b604082019050919050565b60006020820190508181036000830152611aa181611a65565b9050919050565b600081905092915050565b6000611abe82611356565b611ac88185611aa8565b9350611ad8818560208601611372565b80840191505092915050565b6000611af08284611ab3565b915081905092915050565b7f4572726f72202d206b727970746f4269726420616c726561647920657869737460008201527f7300000000000000000000000000000000000000000000000000000000000000602082015250565b6000611b57602183611361565b9150611b6282611afb565b604082019050919050565b60006020820190508181036000830152611b8681611b4a565b9050919050565b7f4e487b7100000000000000000000000000000000000000000000000000000000600052601160045260246000fd5b6000611bc782611411565b9150611bd283611411565b925082821015611be557611be4611b8d565b5b828203905092915050565b7f746f6b656e20646f6573206e6f74206578697374000000000000000000000000600082015250565b6000611c26601483611361565b9150611c3182611bf0565b602082019050919050565b60006020820190508181036000830152611c5581611c19565b9050919050565b7f4572726f72202d20455243373231205472616e7366657220746f74207468652060008201527f7a65726f20616464726573730000000000000000000000000000000000000000602082015250565b6000611cb8602c83611361565b9150611cc382611c5c565b604082019050919050565b60006020820190508181036000830152611ce781611cab565b9050919050565b7f547279696e6720746f207472616e73666572206120746f6b656e20746865206160008201527f64647265737320646f6573206e6f74206f776e21000000000000000000000000602082015250565b6000611d4a603483611361565b9150611d5582611cee565b604082019050919050565b60006020820190508181036000830152611d7981611d3d565b9050919050565b6000611d8b82611411565b9150611d9683611411565b9250827fffffffffffffffffffffffffffffffffffffffffffffffffffffffffffffffff03821115611dcb57611dca611b8d565b5b828201905092915050565b7f4552433732313a206d696e74696e6720746f20746865207a65726f206164647260008201527f6573730000000000000000000000000000000000000000000000000000000000602082015250565b6000611e32602383611361565b9150611e3d82611dd6565b604082019050919050565b60006020820190508181036000830152611e6181611e25565b9050919050565b7f4552433732313a20746f6b656e20616c7265616479206d696e74656400000000600082015250565b6000611e9e601c83611361565b9150611ea982611e68565b602082019050919050565b60006020820190508181036000830152611ecd81611e91565b9050919050565b7f536166654d6174683a205375627472616374696f6e204f766572666c6f770000600082015250565b6000611f0a601e83611361565b9150611f1582611ed4565b602082019050919050565b60006020820190508181036000830152611f3981611efd565b905091905056fea2646970667358221220d1501e4b61398d644c7500a4ad834ab8ea24db2ae37268c0917e7561be1d723064736f6c634300080c0033",
  "immutableReferences": {},
  "source": "// SPDX-License-Identifier: MIT\npragma solidity ^0.8.0;\n\nimport './ERC721Connector.sol';\n\ncontract KryptoBird is ERC721Connector {\n\n    // array to store our nfts\n    string [] public kryptoBirdz;\n\n    mapping(string => bool) _kryptoBirdzExists;\n\n    function mint(string memory _kryptoBird) public {\n\n        require(!_kryptoBirdzExists[_kryptoBird], 'Error - kryptoBird already exists');\n\n        /* this is deprecated\n        uint _id = KryptoBirdz.push(_kryptoBird);\n        - .push no longer returns the length but a ref to the added element\n        */\n        kryptoBirdz.push(_kryptoBird);\n        uint _id = kryptoBirdz.length -1;\n\n        _mint(msg.sender, _id);\n\n        _kryptoBirdzExists[_kryptoBird] = true;\n    }\n\n    constructor () ERC721Connector('KryptoBird', 'KBIRDZ'){\n\n    }\n\n\n}",
  "sourcePath": "/home/hope/dev/study/nft/nft-marketplace-starter-kit/src/contracts/KryptoBirdz.sol",
  "compiler": {
    "name": "solc",
    "version": "0.8.12+commit.f00d7308.Emscripten.clang"
  },
  "schemaVersion": "3.4.5",
  "updatedAt": "2022-03-07T14:58:18.120Z",
  "devdoc": {
    "kind": "dev",
    "methods": {
      "balanceOf(address)": {
        "details": "NFTs assigned to the zero address are considered invalid, and this  function throws for queries about the zero address.",
        "params": {
          "_owner": "An address for whom to query the balance"
        },
        "returns": {
          "_0": "The number of NFTs owned by `_owner`, possibly zero"
        }
      },
      "ownerOf(uint256)": {
        "details": "NFTs assigned to zero address are considered invalid, and queries  about them do throw.",
        "params": {
          "_tokenId": "The identifier for an NFT"
        },
        "returns": {
          "_0": "The address of the owner of the NFT"
        }
      },
      "totalSupply()": {
        "returns": {
          "_0": "A count of valid NFTs tracked by this contract, where each one of  sthem has an assigned and queryable owner not equal to the zero addres"
        }
      }
    },
    "version": 1
  },
  "userdoc": {
    "kind": "user",
    "methods": {
      "balanceOf(address)": {
        "notice": "Count all NFTs assigned to an owner"
      },
      "ownerOf(uint256)": {
        "notice": "Find the owner of an NFT"
      },
      "totalSupply()": {
        "notice": "Count NFTs tracked by this contract"
      }
    },
    "version": 1
  }
}